S01000005472616E736D69742E73726563C2
S11300000C942A000C9447000C9447000C94D702DB
S11300100C9447000C9447000C9447000C94470040
S11300200C9447000C9447000C9447000C94470030
S11300300C9447000C9447000C9447000C94470020
S11300400C9447000C9447000C9447000C94470010
S11300500C94470011241FBECFE5D8E0DEBFCDBF0E
S113006010E0A0E6B0E0E0E0F6E102C005900D92F9
S1130070A83CB107D9F720E0A8ECB0E001C01D927C
S1130080A63EB207E1F70E9447030C94FE0A0C94C3
S113009000005D9BFECF8CB980E090E008955F9BEB
S11300A0FECF8CB190E00895672B09F09FC00097B4
S11300B011F4D89808958130910511F4D9980895D0
S11300C08230910511F4DA9808958330910511F482
S11300D0DB9808958430910511F4DC9808958530F7
S11300E0910511F4DD9808958630910511F4DE9898
S11300F008958730910511F4DF9808958A309105A9
S113010011F4C09808958B30910511F4C1980895A5
S11301108C30910511F4C29808958D30910511F435
S1130120C39808958E30910511F4C49808958F30C2
S1130130910511F4C59808958031910511F4C6987C
S113014008958131910511F4C7980895843191057A
S113015011F4A89808958531910511F4A99808958A
S11301608631910511F4AA9808958731910511F407
S1130170AB9808958831910511F4AC9808958931AC
S1130180910511F4AD9808958A31910511F4AE9852
S113019008958B31910511F4AF9808958E3191052E
S11301A011F4909808958F31910511F49198089560
S11301B08032910511F4929808958132910511F4D9
S11301C0939808958232910511F494980895833296
S11301D0910511F4959808958432910511F4969837
S11301E00895859709F09FC097980895009711F492
S11301F0D89A08958130910511F4D99A08958230DE
S1130200910511F4DA9A08958330910511F4DB9A7B
S113021008958430910511F4DC9A08958530910590
S113022011F4DD9A08958630910511F4DE9A08954B
S11302308730910511F4DF9A08958A30910511F4FD
S1130240C09A08958B30910511F4C19A08958C30A9
S1130250910511F4C29A08958D30910511F4C39A51
S113026008958E30910511F4C49A08958F30910544
S113027011F4C59A08958031910511F4C69A089530
S11302808131910511F4C79A08958431910511F4CF
S1130290A89A08958531910511F4A99A0895863193
S11302A0910511F4AA9A08958731910511F4AB9A36
S11302B008958831910511F4AC9A08958931910516
S11302C011F4AD9A08958A31910511F4AE9A089506
S11302D08B31910511F4AF9A08958E31910511F483
S11302E0909A08958F31910511F4919A089580326E
S11302F0910511F4929A08958132910511F4939A1B
S113030008958232910511F4949A089583329105E7
S113031011F4959A08958432910511F4969A0895EA
S1130320859709F4979A0895CF93C82F80FF03C047
S113033061E070E002C060E070E082E290E00E9460
S11303405400C1FF03C061E070E002C060E070E0EF
S113035083E290E00E945400C2FF03C061E070E0B9
S113036002C060E070E084E290E00E945400C3FFA9
S113037003C061E070E002C060E070E085E290E0FC
S1130380CF910C945400CF93C82F60E070E08AE1C1
S113039090E00E9454008C2F0E94940161E070E070
S11303A08BE190E00E94540087EE93E00197F1F70F
S11303B000C0000060E070E08BE190E00E94540017
S11303C087EE93E00197F1F700C00000CF91089504
S11303D0CF93C82F80E88C0F82958F700E94C30141
S11303E08C2F8F70CF910C94C30180E00E94C301C5
S11303F081E00C94C301CF93813021F4862FCF91F7
S11304000C94E801823061F4C62F80EC860F82954B
S11304108F700E94C3018C2F8F70CF910C94C301F5
S1130420CF91089580E00E9494018FE19EE40197AA
S1130430F1F700C0000083E00E94C30187E893E164
S11304400197F1F700C0000083E00E94C30187EF29
S11304509AE20197F1F700C0000083E00E94C30113
S113046082E00E94C30182E00E94C30188E00E94EE
S1130470C30180E00E94C3018CE00E94C30180E0BC
S11304800E94C30186E00C94C301CF93C82F61E09E
S113049070E08AE190E00E9454008C2F82958F7066
S11304A00E94940161E070E08BE190E00E945400AE
S11304B087EE93E00197F1F700C0000060E070E080
S11304C08BE190E00E94540087EE93E00197F1F7EE
S11304D000C000008C2F8F700E94940161E070E0D6
S11304E08BE190E00E94540087EE93E00197F1F7CE
S11304F000C0000060E070E08BE190E00E945400D6
S113050087EE93E00197F1F700C00000CF910895C2
S1130510CF93DF93EC018991882319F00E9445025F
S1130520FACFDF91CF9108951BB888E18AB986E8A4
S113053080BD10BC87E689B90895CF93DF9360E04E
S113054070E089E490E00E948106CCEDD0E09B83CA
S11305508A836FE470E080E090E00E9481069983D2
S11305608883DF91CF9108951ABA87E886B980E429
S113057087B908958770806487B9369A349BFECF13
S1130580349A24B185B190E0982F8827820F911D69
S113059008955D9BFECF8CB9089580E884BF84BF25
S11305A0A69AA79A8C9A8D9A8E9A8F9A08951F92DA
S11305B00F920FB60F9211242F938F939F93EF9363
S11305C0FF93E2EDF0E08085918521E08227918719
S11305D080878FEF94E32CE0815090402040E1F736
S11305E000C00000FF91EF919F918F912F910F9088
S11305F00FBE0F901F901895BA9880E28BBF84B7F6
S11306008F7B84BF789408950E94CD020E941202C9
S11306100E94F50181E00E94E8018FE790E00E94CA
S113062088022FEF84E39CE0215080409040E1F762
S113063000C000000E94B4020E9494020E949D0225
S11306400E94F50181E00E94E80188E890E00E94A0
S1130650880287E990E00E9488020E94F50181E007
S11306600E94E80188EA90E00E94880261E082E04A
S11306700E94FB0185EB90E00E9488020E94FC022C
S113068080E390E09093DB008093DA000895CF93A9
S1130690DF93CDB7DEB769970FB6F894DEBF0FBE10
S11306A0CDBF0E9404037CED272E70E0372EE2ECD0
S11306B04E2EE0E05E2EF0E36F2E712C8E010B5E69
S11306C01F4FA3E0EA2EF12C84E1E6E6F0E0DE0120
S11306D0119601900D928A95E1F758ECA52E50E001
S11306E0B52E62EDC62E60E0D62E912C892D0E9487
S11306F0BA02F501219131915F0195958795959500
S11307008795821B930BF601819391936F019394C8
S1130710F4E09F12EBCF93E0892E912CFE013196E9
S11307206F0182EDA82E80E0B82EDF92CF925F9207
S11307304F920E94CC06F501819191915F010E9434
S1130740C902F4E0CF0ED11C0F900F900F900F90C0
S11307502A143B0451F781E0881A9108F9F6809134
S1130760DA009091DB00C19721F47092DB00609273
S1130770DA0083E00E94E8016091D2007091D30016
S113078080E090E00E94610520E030E04FE753E410
S11307900E94B90420E030E048EC52E40E94EF05E6
S11307A00E942B05CB016536710514F084E690E0B8
S11307B04AE0B801C2970E945C06C12CD12CF80112
S11307C001900020E9F73197E01BF10BC7018E1B64
S11307D09F0BC816D90640F485EC90E00E9488026D
S11307E0FFEFCF1ADF0AEBCFC8010E9488028AE02C
S11307F00E94E8016091D4007091D50080E090E0FF
S11308000E94610520E030E04FE753E40E94B90400
S113081020E030E048EC52E40E94EF050E942B05F2
S1130820CB016536710514F084E690E04AE0B80126
S1130830C2970E945C06C12CD12CF80101900020C3
S1130840E9F73197E01BF10BC7018E1B9F0BC8160C
S1130850D90640F485EC90E00E9488028FEFC81A14
S1130860D80AEBCFC8010E94880263E082E00E94AC
S1130870FB016091D6007091D70080E090E00E9467
S1130880610520E030E04FE753E40E94B90420E022
S113089030E048EC52E40E94EF050E942B05CB01A6
S11308A06536710514F084E690E04AE0B801C29719
S11308B00E945C06C12CD12CF80101900020E9F7BC
S11308C03197E01BF10BC7018E1B9F0BC816D9068D
S11308D040F485EC90E00E9488029FEFC91AD90A7F
S11308E0EBCFC8010E9488026AE082E00E94FB010B
S11308F06091D8007091D90080E090E00E94610579
S113090020E030E04FE753E40E94B90420E030E0F7
S113091048EC52E40E94EF050E942B05CB0165369A
S1130920710514F084E690E04AE0B8010E945C0688
S1130930C12CD12CF80101900020E9F73197E01B7C
S1130940F10BC7018E1B9F0BC816D90640F485EC2A
S113095090E00E948802EFEFCE1ADE0AEBCFC801C6
S11309600E9488028FE097E20197F1F700C000002F
S1130970ABCE0E94CD040C94B5050E94AE0558F090
S11309800E94A70540F029F45F3F29F00C949E05CE
S113099051110C94E9050C94A4050E94C60568F352
S11309A09923B1F3552391F3951B550BBB27AA2724
S11309B062177307840738F09F5F5F4F220F331F5E
S11309C0441FAA1FA9F335D00E2E3AF0E0E832D026
S11309D091505040E695001CCAF72BD0FE2F29D029
S11309E0660F771F881FBB1F261737074807AB07FB
S11309F0B0E809F0BB0B802DBF01FF2793585F4F70
S1130A003AF09E3F510578F00C949E050C94E9054C
S1130A105F3FE4F3983ED4F3869577956795B79551
S1130A20F7959F5FC9F7880F911D9695879597F95C
S1130A300895E1E0660F771F881FBB1F62177307D5
S1130A408407BA0720F0621B730B840BBA0BEE1FEA
S1130A5088F7E09508950E9432056894B1110C94CA
S1130A60E90508950E94CE0588F09F5798F0B92FA4
S1130A709927B751B0F0E1F0660F771F881F991FCF
S1130A801AF0BA95C9F714C0B13091F00E94E80584
S1130A90B1E008950C94E805672F782F8827B85F94
S1130AA039F0B93FCCF3869577956795B395D9F727
S1130AB03EF490958095709561957F4F8F4F9F4F31
S1130AC00895E89409C097FB3EF49095809570953D
S1130AD061957F4F8F4F9F4F9923A9F0F92F96E986
S1130AE0BB279395F695879577956795B795F111FB
S1130AF0F8CFFAF4BB0F11F460FF1BC06F5F7F4F98
S1130B008F4F9F4F16C0882311F096E911C07723A9
S1130B1021F09EE8872F762F05C0662371F096E8B2
S1130B20862F70E060E02AF09A95660F771F881F81
S1130B30DAF7880F9695879597F9089597F99F673F
S1130B4080E870E060E008959FEF80EC0895002451
S1130B500A941616170618060906089500240A941E
S1130B6012161306140605060895092E0394000CA4
S1130B7011F4882352F0BB0F40F4BF2B11F460FF33
S1130B8004C06F5F7F4F8F4F9F4F089557FD90585C
S1130B90440F551F59F05F3F71F04795880F97FB3D
S1130BA0991F61F09F3F79F08795089512161306F7
S1130BB01406551FF2CF4695F1DF08C01616170626
S1130BC01806991FF1CF869571056105089408955B
S1130BD0E894BB2766277727CB0197F908950E94ED
S1130BE002060C94B5050E94A70538F00E94AE05D4
S1130BF020F0952311F00C949E050C94A405112467
S1130C000C94E9050E94C60570F3959FC1F3950FF6
S1130C1050E0551F629FF001729FBB27F00DB11D7C
S1130C20639FAA27F00DB11DAA1F649F6627B00D0C
S1130C30A11D661F829F2227B00DA11D621F739FF5
S1130C40B00DA11D621F839FA00D611D221F749F03
S1130C503327A00D611D231F849F600D211D822F4A
S1130C60762F6A2F11249F5750409AF0F1F0882371
S1130C704AF0EE0FFF1FBB1F661F771F881F91509E
S1130C805040A9F79E3F510580F00C949E050C94AA
S1130C90E9055F3FE4F3983ED4F38695779567952D
S1130CA0B795F795E7959F5FC1F7FE2B880F911DC8
S1130CB09695879597F90895BB274A3031F499237F
S1130CC022F4BDE2909581959F4F0C946806BB2752
S1130CD0FB015527AA27880F991FAA1FA41710F0F4
S1130CE0A41B83955051B9F7A05DAA3308F0A95D00
S1130CF0A193009779F7B111B1931192CB010C94A0
S1130D001D0A0F931F93CF93DF93009731F461155E
S1130D10710519F480E090E03AC08B01EC016EE0BB
S1130D2070E081E090E00E94C308FC01892B91F3FC
S1130D3080E883830115110571F01387028781E828
S1130D4083838091DC009091DD00892B21F4F09362
S1130D50DD00E093DC002097C9F0D187C087838150
S1130D60826083838091DE009091DF00892B71F48F
S1130D70F093DF00E093DE008091E0009091E100C9
S1130D80892B21F4F093E100E093E000CF01DF919F
S1130D90CF911F910F910895A0E0B0E0E2EDF6E04D
S1130DA00C94D70AAE014B5F5F4FFA0161917191C8
S1130DB0AF018091DE009091DF000E94E206E2E044
S1130DC00C94F30AABE0B0E0E8EEF6E00C94C70A4A
S1130DD06C017B018A01FC0117821682838181FFE9
S1130DE0CCC1CE0101963C01F6019381F70193FD3C
S1130DF0859193FF81917F01882309F4BAC18532DB
S1130E0039F493FD859193FF81917F01853229F413
S1130E10B60190E00E942D0AE7CF912C212C312CB1
S1130E20FFE1F315D8F08B3279F038F4803279F0A1
S1130E308332A1F4232D20611DC08D3261F08033F3
S1130E4069F4232D216016C0832D8260382EE32D92
S1130E50E4603E2E2AC0F32DF8601DC037FC2DC07F
S1130E6020ED280F2A3040F08E32B9F436FC81C1CF
S1130E70232D2064322E19C036FE06C08AE0989EC7
S1130E80200D1124922E11C0EAE02E9E200D112473
S1130E90222EF32DF0623F2E08C08C3621F4832DD0
S1130EA08068382E02C0883641F4F70193FD85919D
S1130EB093FF81917F018111B3CF982F9F7D95542A
S1130EC0933028F40C5F1F4F9FE399830DC0833642
S1130ED031F0833771F0833509F059C021C0F8012E
S1130EE0808189830E5F1F4F88248394912C530142
S1130EF013C02801F2E04F0E511CF801A080B1800C
S1130F0036FE03C0692D70E002C06FEF7FEFC501AC
S1130F100E94120A4C018201F32DFF773F2E16C066
S1130F20280122E0420E511CF801A080B18036FE57
S1130F3003C0692D70E002C06FEF7FEFC5010E940E
S1130F40000A4C01F32DF0683F2E820133FC1BC0D4
S1130F50822D90E088169906B0F4B60180E290E004
S1130F600E942D0A2A94F4CFF50137FC859137FEAF
S1130F7081915F01B60190E00E942D0A21102A940C
S1130F8021E0821A91088114910471F7E8C0843633
S1130F9011F0893641F5F80137FE07C0608171818F
S1130FA0828193810C5F1F4F08C060817181072E7D
S1130FB0000C880B990B0E5F1F4FF32DFF763F2E0D
S1130FC097FF09C090958095709561957F4F8F4FDD
S1130FD09F4FF0683F2E2AE030E0A3010E94690A87
S1130FE0882E861845C0853731F4232D2F7EB22EE6
S1130FF02AE030E025C0932D997FB92E8F36C1F0B9
S113100018F4883579F0B5C0803719F0883721F0A5
S1131010B0C0E92FE061BE2EB4FE0DC0FB2DF4601C
S1131020BF2E09C034FE0AC0292F2660B22E06C086
S113103028E030E005C020E130E002C020E132E0E9
S1131040F801B7FE07C060817181828193810C5FD2
S11310501F4F06C06081718180E090E00E5F1F4FDA
S1131060A3010E94690A882E8618FB2DFF773F2E64
S113107036FE0DC0232D2E7FA22E891458F434FE83
S11310800BC032FC09C0832D8E7EA82E05C0B82C5F
S1131090A32C03C0B82C01C0B92CA4FE0FC0FE01C0
S11310A0E80DF11D8081803321F49A2D997EA92EBB
S11310B009C0A2FE06C0B394B39404C08A2D8678F6
S11310C009F0B394A3FC11C0A0FE06C0B21488F4C6
S11310D0280C922C9B180EC0B21460F4B60180E266
S11310E090E00E942D0AB394F7CFB21418F42B1891
S11310F002C0982C212CA4FE10C0B60180E390E01D
S11311000E942D0AA2FE17C0A1FC03C088E790E04C
S113111002C088E590E0B6010CC08A2D867859F0AB
S1131120A1FE02C08BE201C080E2A7FC8DE2B60101
S113113090E00E942D0A891438F4B60180E390E00F
S11311400E942D0A9A94F7CF8A94F301E80DF11DB9
S11311508081B60190E00E942D0A8110F5CF2220F3
S113116009F442CEB60180E290E00E942D0A2A944E
S1131170F6CFF6018681978102C08FEF9FEF2B9601
S1131180E2E10C94E30A0F931F93CF93DF93869FBE
S11311908001879F100D969F100D1124C8010E9495
S11311A0DF08EC01009729F0A80160E070E00E94DC
S11311B00B0ACE01DF91CF911F910F9108950F93E8
S11311C01F93CF93DF938230910510F482E090E077
S11311D0E091E400F091E50020E030E0A0E0B0E030
S11311E0309719F1408151810281138148175907C1
S11311F0C8F08417950769F4109731F012960C9390
S1131200129713961C9327C00093E4001093E500F3
S113121022C02115310519F04217530718F49A0119
S1131220BD01EF01DF01F801DBCF21153105F9F034
S1131230281B390B2430310580F48A819B81611588
S1131240710521F0FB019383828304C09093E50030
S11312508093E400FE01329644C0FE01E20FF31FC6
S11312608193919322503109398328833AC0209184
S1131270E2003091E300232B41F42091620030918D
S113128063003093E3002093E200209160003091EA
S113129061002115310541F42DB73EB7409164003A
S11312A050916500241B350BE091E200F091E300BE
S11312B0E217F307A0F42E1B3F0B2817390778F029
S11312C0AC014E5F5F4F2417350748F04E0F5F1F88
S11312D05093E3004093E2008193919302C0E0E0D5
S11312E0F0E0CF01DF91CF911F910F910895CF933B
S11312F0DF93009709F481C0FC01329713821282B4
S1131300A091E400B091E500109781F4208131812F
S1131310820F931F2091E2003091E30028173907D0
S113132051F5F093E300E093E20067C0ED0120E0A3
S113133030E0CE17DF0740F44A815B819E014115FE
S11313405105F1F0EA01F5CFD383C2834081518185
S1131350840F951FC817D90759F488819981840F80
S1131360951F0296918380838A819B8193838283D4
S11313702115310529F4F093E500E093E4003DC024
S1131380E901FB83EA8349915991C40FD51FEC17F6
S1131390FD0761F480819181840F951F0296E90114
S11313A099838883828193819B838A83E0E0F0E040
S11313B012968D919C911397009719F0FD01DC0111
S11313C0F7CF8D919C9111979D012E5F3F4F820F16
S11313D0931F2091E2003091E3002817390769F444
S11313E0309729F41092E5001092E40002C01382B1
S11313F01282B093E300A093E200DF91CF910895AD
S1131400FC010590615070400110D8F780959095CB
S11314108E0F9F1F0895DC0101C06D934150504011
S1131420E0F70895FC016150704001900110D8F775
S1131430809590958E0F9F1F0895DC01FC01672F06
S113144071917723E1F7329704C07C916D93708397
S11314506291AE17BF07C8F308950F931F93CF93FC
S1131460DF93FB01238121FD03C08FEF9FEF2CC08D
S113147022FF16C0468157812481358142175307C4
S113148044F4A081B1819D012F5F3F4F31832083BC
S11314908C93268137812F5F3F4F3783268314C077
S11314A08B01EC01FB010084F185E02D0995892B6A
S11314B0E1F6D80116968D919C911797019617968F
S11314C09C938E931697CE01DF91CF911F910F912C
S11314D00895FA01AA27283051F1203181F1E894C6
S11314E06F936E7F6E5F7F4F8F4F9F4FAF4FB1E013
S11314F03ED0B4E03CD0670F781F891F9A1FA11D0E
S1131500680F791F8A1F911DA11D6A0F711D811D0E
S1131510911DA11D20D009F468943F912AE0269FD3
S113152011243019305D3193DEF6CF010895462F32
S11315304770405D4193B3E00FD0C9F7F6CF462F13
S11315404F70405D4A3318F0495D31FD405241937C
S113155002D0A9F7EACFB4E0A69597958795779539
S11315606795BA95C9F700976105710508959B01C0
S1131570AC010A2E06945795479537952795BA9549
S1131580C9F7620F731F841F951FA01D08952F9222
S11315903F924F925F926F927F928F929F92AF92FF
S11315A0BF92CF92DF92EF92FF920F931F93CF934C
S11315B0DF93CDB7DEB7CA1BDB0B0FB6F894DEBFE3
S11315C00FBECDBF09942A88398848885F846E8409
S11315D07D848C849B84AA84B984C884DF80EE8053
S11315E0FD800C811B81AA81B981CE0FD11D0FB65C
S11315F0F894DEBF0FBECDBFED010895F894FFCF80
S11316000000E6002000524F4C005049540059415C
S11316105700544852005354500025640D0A005793
S1131620656C636F6D65210043616C6962726174FE
S1131630696E67204A530043616C69627261746920
S11316406F6E20646F6E650052203030302C205055
S1131650203030300059203030302C2054203030AD
S10B1660300025730020000096
S9030000FC
