S018000041546D65676131365F4D5055363035302E737265635A
S11300000C94AD000C94CA000C94CA000C94CA0061
S11300100C94CA000C94CA000C94CA000C94CA0034
S11300200C94CA000C94CA000C94CA000C94CA0024
S11300300C94CA000C94CA000C94CA000C94CA0014
S11300400C94CA000C94CA000C94CA000C94CA0004
S11300500C94CA006364696E6F70737578585B00A2
S113006000407A10F35A00A0724E18090010A5D46B
S1130070E80000E87648170000E40B54020000CAC8
S11300809A3B000000E1F50500008096980000000E
S113009040420F000000A08601000000102700006D
S11300A00000E803000000006400000000000A00F3
S11300B0000000000100000000002C76D888DC67F6
S11300C04F0823DFC1DFAE59E1B1B796E5E3E4534E
S11300D0C63AE651997696E8E6C28426EB898C9B6B
S11300E062ED407C6FFCEFBC9C9F40F2BAA56FA50B
S11300F0F490055A2AF75C936B6CF9676DC11BFC8D
S1130100E0E40D47FEF520E6B500D0ED902E0300A7
S1130110943577050080841E080000204E0A0000F4
S113012000C80C333333330F986E12831141EF8DB3
S11301302114893BE65516CFFEE6DB18D1844B38F3
S11301401BF77C1D901DA4BBE424203284725E2224
S11301508100C9F124ECA1E53D2711241FBECFE5A0
S1130160D8E0DEBFCDBF12E0A0E6B0E0E0E7F7E202
S113017002C005900D92A030B107D9F722E0A0E0AB
S1130180B2E001C01D92AB3EB207E1F70E949A05AE
S11301900C94B6130C94000011B880E280B9089551
S11301A094EA96BF06B607FEFDCF91B1987F9031D1
S11301B071F483B984E886BF06B607FEFDCF81B12A
S11301C0887F803431F0803231F083E0089580E01C
S11301D0089581E0089582E0089584E986BF06B613
S11301E004FCFDCF08951F93CF93DF93C82FD4EA67
S11301F014E8D6BF06B607FEFDCF81B1887F8830EC
S1130200C1F7C3B916BF06B607FEFDCF81B1887F1B
S1130210883119F00E94ED00ECCFDF91CF911F914E
S1130220089583B984E886BF06B607FEFDCF81B181
S1130230887F883221F0803321F082E0089580E0C5
S1130240089581E0089584EC86BF06B607FEFDCFCD
S113025083B1089584E886BF06B607FEFDCF83B157
S113026008955D9BFECF8CB980E090E008955F9B7C
S1130270FECF8CB190E008952FEB84ED91E02150F6
S113028080409040E1F700C0000080ED0E94F30040
S113029089E10E94110187E00E9411010E94ED0092
S11302A080ED0E94F3008BE60E94110181E00E9420
S11302B011010E94ED0080ED0E94F3008AE10E948A
S11302C0110180E00E9411010E94ED0080ED0E9466
S11302D0F3008BE10E94110188E10E9411010E9448
S11302E0ED0080ED0E94F30088E30E94110181E09B
S11302F00E9411010C94ED0080ED0E94F3008BE349
S11303000E94110181ED0C94D000CF930E947C01D6
S11303100E942301C82F0E9423016C2F70E0762FC6
S11303206627682B072E000C880B990B0E941A086D
S113033060936002709361028093620290936302FF
S11303400E942301C82F0E9423016C2F70E0762F96
S11303506627682B072E000C880B990B0E941A083D
S11303606093520270935302809354029093550207
S11303700E942301C82F0E9423016C2F70E0762F66
S11303806627682B072E000C880B990B0E941A080D
S113039060931C0270931D0280931E0290931F02AF
S11303A00E942301C82F0E9423016C2F70E0762F36
S11303B06627682B072E000C880B990B0E941A08DD
S11303C060934A0270934B0280934C0290934D02C7
S11303D00E942301C82F0E9423016C2F70E0762F06
S11303E06627682B072E000C880B990B0E941A08AD
S11303F060934602709347028093480290934902A7
S11304000E942301C82F0E9423016C2F70E0762FD5
S11304106627682B072E000C880B990B0E941A087C
S11304206093D0027093D1028093D2029093D3024E
S11304300E942301C82F0E942A016C2F70E0762F9E
S11304406627682B072E000C880B990B0E941A084C
S1130450609358027093590280935A0290935B02FE
S1130460CF910C94ED001BB888E18AB986E880BD71
S113047010BC87E689B90895CF93DF9360E070E0FC
S113048081E391E00E94B609C1EED2E09B838A83A6
S113049067E371E080E090E00E94B6099983888365
S11304A0DF91CF9108954F925F926F927F928F92D6
S11304B09F92AF92BF92CF92DF92EF92FF920F93EF
S11304C01F93CF93DF93C0E0D0E034E6A32EB12C8A
S11304D00EE810E00E948501609146027091470287
S11304E080914802909149020E94E207F62EE72E7D
S11304F060931402709315026091D0027091D1023E
S11305008091D2029091D3020E94E207D62EC72E88
S11305106093160270931702609158027091590209
S113052080915A0290915B020E94E207962E872ED8
S113053060931802709319026091600270916102D5
S113054080916202909163020E94E2077093030219
S1130550609302026091520270915302809154029E
S1130560909155020E94E207709305026093040281
S113057060911C0270911D0280911E0290911F02D5
S11305800E94E2077093070260930602CE01B50150
S11305900E941309892BC1F480917800909179000D
S11305A0892B91F08F929F92CF92DF92EF92FF92DC
S11305B01F930F930E94010A8DB79EB708960FB63A
S11305C0F8949EBF0FBE8DBF609114027091150206
S11305D0CB01770FAA0BBB0B409108025091090283
S11305E060910A0270910B026C017D01C40ED51E4C
S11305F0E61EF71EC701B601C0920802D092090296
S1130600E0920A02F0920B024090160250901702F8
S1130610052C000C66087708C0900C02D0900D02DF
S1130620E0900E02F0900F024C0C5D1C6E1C7F1CBF
S113063040920C0250920D0260920E0270920F02D0
S1130640C0901802D09019020D2C000CEE08FF087F
S11306502091100230911102409112025091130224
S1130660C20ED31EE41EF51EC0921002D0921102D7
S1130670E0921202F09213022196C83CD10509F0CF
S113068029CF28EC822E912CA12CB12CA501940108
S11306900E944909E901142F052F20930802D093E1
S11306A0090240930A0250930B02C301B201A5014F
S11306B094010E944909722E632E542E452E2093D4
S11306C00C0230930D0240930E0250930F02C701A7
S11306D0B601A50194010E944909209310023093A8
S11306E01102409312025093130280911A029091C6
S11306F01B02019701F58091780090917900892B74
S1130700D1F05F934F933F932F934F925F926F92E9
S11307107F920F931F93DF93CF9386EA90E09F938A
S11307208F930E94010A8DB79EB70E960FB6F89468
S11307309EBF0FBE8DBFDF91CF911F910F91FF9090
S1130740EF90DF90CF90BF90AF909F908F907F906D
S11307506F905F904F90089588E483BF83B7806261
S113076083BF83B7836083BFBB9A089588E485BD44
S113077085B5806285BD85B5846085BD8F9A0895F1
S113078081E08FBD88E08EBD8FB5806A8FBD8EB548
S113079083608EBD8D9A8C9A08951ABA87E886B9BB
S11307A080E487B908950E94CD030E94CC000E9482
S11307B03C010E9433020E943C020E9453020E94A8
S11307C0AC030E94B6030E94C0038091660090911E
S11307D067008CBF809166009091670083BD809113
S11307E06600909167009BBD8ABD809166009091E0
S11307F0670099BD88BD2FE788E391E021508040D0
S11308009040E1F700C0000080916600909167007D
S11308108093D402109201021092000288EA91E0BF
S11308200C94170A6F927F928F929F92AF92BF920D
S1130830CF92DF92EF92FF920F931F93CF93DF93A8
S1130840CDB7DEB7E2970FB6F894DEBF0FBECDBFCB
S113085045E0A42EB12C9E012F5F3F4F790154EB4C
S1130860652E51E0752E8E01015E1F4F67EC862EBA
S113087061E0962EF1E0AF1AB10809F446C1FF9287
S1130880EF927F926F920E94470A1E8E84E1EAE7FC
S1130890F0E0D80101900D928A95E1F7B801C70103
S11308A00E949C090F900F900F900F90009789F071
S11308B09C012D5F3F4F2017310758F4FC018381C1
S11308C090E090936D0080936C00CC24C394D12C61
S11308D002C0C12CD12CBE016D5D7F4FC7010E94A7
S11308E09C09009781F09C012D5F3F4F2017310731
S11308F050F4FC01838190E090936B0080936A0034
S1130900CC24C394D12CBE01695D7F4FC7010E94E2
S11309109C09009781F09C012D5F3F4F2017310700
S113092050F4FC01838190E0909369008093680007
S1130930CC24C394D12CBE01655D7F4FC7010E94B6
S11309409C09009781F09C012D5F3F4F20173107D0
S113095050F4FC01838190E090936F0080936E00CB
S1130960CC24C394D12CBE01615D7F4FC7010E948A
S11309709C09009789F19C012D5F3F4F2017310797
S113098058F5FC018381813339F589EB91E00E94AC
S1130990170A80916600909167008CBF8091660071
S11309A09091670083BD80916600909167009BBD24
S11309B08ABD809166009091670099BD88BDFFEF64
S11309C02CE231E381E0F150204030408040D9F7FF
S11309D000C000000E94D303CD2809F160916E008D
S11309E070916F00409168005091690020916A00F5
S11309F030916B0080916C0090916D007F936F93A8
S1130A005F934F933F932F939F938F939F928F92D4
S1130A100E94010A0FB6F894DEBF0FBECDBF8091CD
S1130A206C0090916D00449734F480917000909123
S1130A30710001970CC080916C0090916D00813F12
S1130A4091054CF080917000909171000196909303
S1130A5071008093700080916A0090916B004497BC
S1130A6034F4809172009091730001970CC08091CE
S1130A706A0090916B00813F91054CF08091720067
S1130A80909173000196909373008093720080910B
S1130A90680090916900449734F4809176009091B5
S1130AA0770001970CC08091680090916900813FA4
S1130AB091054CF080917600909177000196909387
S1130AC077008093760080916E0090916F00449738
S1130AD054F480917400909175000197909375007F
S1130AE080937400C7CE80916E0090916F00813F17
S1130AF091050CF4BFCE8091760090917700019619
S1130B009093770080937600B5CEE2960FB6F89472
S1130B10DEBF0FBECDBFDF91CF911F910F91FF902C
S1130B20EF90DF90CF90BF90AF909F908F907F9089
S1130B306F900895CF93DF93CDB7DEB72C970FB6A0
S1130B40F894DEBF0FBECDBF0E94D30301E010E0D6
S1130B5086E4F82E9DE4E92E80911A0290911B02FE
S1130B60019690931B0280931A02892B09F45CC0AE
S1130B708DED91E00E94170A0E94120480916E008C
S1130B8090916F00449754F48091D40281508093E3
S1130B90D402109201021092000210C080916E00E3
S1130BA090916F00813F91054CF08091D4028F5F4A
S1130BB08093D402109301020093000280910002FA
S1130BC090910102892B59F08091D402873438F036
S1130BD08091D4028D3418F4E092D40206C080913E
S1130BE0D4028D3410F4F092D4028091D4021F9276
S1130BF08F932BEF31E03F932F930E94010A809152
S1130C00D4028CBF8091D40283BD8091D40290E041
S1130C109BBD8ABD8091D40290E099BD88BD0F90A0
S1130C200F900F900F9098CF0E948501609146021B
S1130C307091470280914802909149020E94E20714
S1130C40162F072F60931402709315026091D0023F
S1130C507091D1028091D2029091D3020E94E20756
S1130C60F62EE72E609316027093170260915802D5
S1130C707091590280915A0290915B020E94E2079E
S1130C8060931802709319027F936F93EF92FF920F
S1130C900F931F938EE890E09F938F930E94010A15
S1130CA0609160027091610280916202909163028E
S1130CB0409052025090530260905402709055023A
S1130CC080901C0290901D02A0901E02B0901F0202
S1130CD020914602309147024091480250914902C6
S1130CE029833A834B835C832091D0023091D102D3
S1130CF04091D2025091D3022D833E834F83588773
S1130D00209158023091590240915A0250915B024D
S1130D1029873A874B875C87C0904A02D0904B0260
S1130D20E0904C02F0904D0220E030E040E858E3BF
S1130D300E94A60800E212E022E043E00E947C093F
S1130D4020E030E040E858E3C301B2010E94A60865
S1130D5022E043E00E947C0920E030E040E858E3D0
S1130D60C501B4010E94A60822E043E00E947C0968
S1130D7020E030E04AEA53E4C701B6010E9470075C
S1130D8028EB3EE142E152E40E94040722E043E002
S1130D900E947C0923E333E343E851E469817A81C7
S1130DA08B819C810E94700722E043E00E947C09B1
S1130DB023E333E343E851E46D817E818F81988599
S1130DC00E94700722E043E00E947C0923E333E39E
S1130DD043E851E469857A858B859C850E94700778
S1130DE022E043E00E947C093FEF44E35CE03150A1
S1130DF040405040E1F700C000000FB6F894DEBF59
S1130E000FBECDBF11CF5058BB27AA270E941B0786
S1130E100C946C080E945E0838F00E94650820F06B
S1130E2039F49F3F19F426F40C945B080EF4E09512
S1130E30E7FB0C945508E92F0E947D0858F3BA1774
S1130E40620773078407950720F079F4A6F50C94DC
S1130E509F080EF4E0950B2EBA2FA02D0B01B901BB
S1130E6090010C01CA01A0011124FF27591B99F01C
S1130E70593F50F4503E68F11A16F040A22F232F28
S1130E80342F4427585FF3CF469537952795A79578
S1130E90F0405395C9F77EF41F16BA0B620B730B1F
S1130EA0840BBAF09150A1F0FF0FBB1F661F771F90
S1130EB0881FC2F70EC0BA0F621F731F841F48F445
S1130EC0879577956795B795F7959E3F08F0B0CFCE
S1130ED09395880F08F09927EE0F979587950895B5
S1130EE00E9484070C946C080E94650858F00E94C4
S1130EF05E0840F029F45F3F29F00C945508511125
S1130F000C94A0080C945B080E947D0868F3992354
S1130F10B1F3552391F3951B550BBB27AA276217F1
S1130F207307840738F09F5F5F4F220F331F441FFE
S1130F30AA1FA9F335D00E2E3AF0E0E832D0915032
S1130F405040E695001CCAF72BD0FE2F29D0660F1F
S1130F50771F881FBB1F261737074807AB07B0E862
S1130F6009F0BB0B802DBF01FF2793585F4F3AF068
S1130F709E3F510578F00C9455080C94A0085F3FEF
S1130F80E4F3983ED4F3869577956795B795F795EE
S1130F909F5FC9F7880F911D9695879597F90895D6
S1130FA0E1E0660F771F881FBB1F62177307840772
S1130FB0BA0720F0621B730B840BBA0BEE1F88F781
S1130FC0E09508950E94E9076894B1110C94A00873
S1130FD008950E94850888F09F5798F0B92F9927A3
S1130FE0B751B0F0E1F0660F771F881F991F1AF010
S1130FF0BA95C9F714C0B13091F00E949F08B1E0CE
S113100008950C949F08672F782F8827B85F39F0CC
S1131010B93FCCF3869577956795B395D9F73EF4A8
S113102090958095709561957F4F8F4F9F4F089550
S1131030E89409C097FB3EF490958095709561956E
S11310407F4F8F4F9F4F9923A9F0F92F96E9BB2724
S11310509395F695879577956795B795F111F8CFA0
S1131060FAF4BB0F11F460FF1BC06F5F7F4F8F4F0B
S11310709F4F16C0882311F096E911C0772321F001
S11310809EE8872F762F05C0662371F096E8862F99
S113109070E060E02AF09A95660F771F881FDAF7F0
S11310A0880F9695879597F9089597F99F6780E833
S11310B070E060E008959FEF80EC089500240A94A6
S11310C01616170618060906089500240A9412161F
S11310D01306140605060895092E0394000C11F452
S11310E0882352F0BB0F40F4BF2B11F460FF04C0FF
S11310F06F5F7F4F8F4F9F4F089557FD9058440F58
S1131100551F59F05F3F71F04795880F97FB991F62
S113111061F09F3F79F0879508951216130614061F
S1131120551FF2CF4695F1DF08C0161617061806AC
S1131130991FF1CF86957105610508940895E89487
S1131140BB2766277727CB0197F908950E94B90832
S11311500C946C080E945E0838F00E94650820F028
S1131160952311F00C9455080C945B0811240C94ED
S1131170A0080E947D0870F3959FC1F3950F50E07D
S1131180551F629FF001729FBB27F00DB11D639F35
S1131190AA27F00DB11DAA1F649F6627B00DA11DDB
S11311A0661F829F2227B00DA11D621F739FB00D81
S11311B0A11D621F839FA00D611D221F749F3327F1
S11311C0A00D611D231F849F600D211D822F762F8A
S11311D06A2F11249F5750409AF0F1F088234AF067
S11311E0EE0FFF1FBB1F661F771F881F91505040D3
S11311F0A9F79E3F510580F00C9455080C94A00863
S11312005F3FE4F3983ED4F3869577956795B79559
S1131210F795E7959F5FC1F7FE2B880F911D969573
S1131220879597F9089597FB072E16F4009407D035
S113123077FD09D00E94680907FC05D03EF490951B
S113124081959F4F0895709561957F4F0895A1E210
S11312501A2EAA1BBB1BFD010DC0AA1FBB1FEE1F2C
S1131260FF1FA217B307E407F50720F0A21BB30B77
S1131270E40BF50B661F771F881F991F1A9469F7F3
S113128060957095809590959B01AC01BD01CF014F
S11312900895052E97FB1EF400940E94600957FDE3
S11312A007D00E94270907FC03D04EF40C94600970
S11312B050954095309521953F4F4F4F5F4F08957E
S11312C090958095709561957F4F8F4F9F4F0895AE
S11312D0AA1BBB1B51E107C0AA1FBB1FA617B70758
S11312E010F0A61BB70B881F991F5A95A9F7809574
S11312F09095BC01CD010895EF920F931F93CF9366
S1131300DF93E80147FD02C034E001C034E1042E5C
S1131310000C550B57FF03C0519541955109E32E1D
S1131320022F242FAE010E94070FCE01DF91CF912F
S11313301F910F91EF900895FB0151915523A9F04E
S1131340BF01DC014D9145174111E1F759F4CD017D
S11313500190002049F04D9140154111C9F3FB0162
S11313604111EFCF81E090E0019708950F931F930F
S1131370CF93DF93009731F46115710519F480E080
S113138090E03AC08B01EC016EE070E081E090E007
S11313900E94EB0EFC01892B91F380E883830115F5
S11313A0110571F01387028781E883838091E1023C
S11313B09091E202892B21F4F093E202E093E1029E
S11313C02097C9F0D187C08783818260838380910D
S11313D0E3029091E402892B71F4F093E402E09328
S11313E0E3028091E5029091E602892B21F4F093C7
S11313F0E602E093E502CF01DF91CF911F910F91B7
S11314000895A0E0B0E0E7E0FAE00C948F13AE0199
S11314104B5F5F4FFA0161917191AF018091E302DB
S11314209091E4020E945D0AE2E00C94AB130F93E6
S11314301F93CF93DF93E091E302F091E4022381C1
S113144021FF1BC08C01D0E0C0E0F80181918F0125
S11314506091E3027091E402DB011896ED91FC9136
S11314601997882331F00995892B79F3DFEFCFEFB2
S1131470ECCF8AE00995892B19F08FEF9FEF02C01A
S11314808D2F9C2FDF91CF911F910F910895A0E094
S1131490B0E0EDE4FAE00C948F13AE014B5F5F4FC4
S11314A0FA0161917191AF018091E1029091E202A0
S11314B00E94DA0DE2E00C94AB13ABE0B0E0E3E69B
S11314C0FAE00C947F136C017B018A01FC01178202
S11314D01682838181FFCCC1CE0101963C01F601C5
S11314E09381F70193FD859193FF81917F01882377
S11314F009F4BAC1853239F493FD859193FF819142
S11315007F01853229F4B60190E00E94C912E7CF29
S1131510912C212C312CFFE1F315D8F08B3279F08A
S113152038F4803279F08332A1F4232D20611DC078
S11315308D3261F0803369F4232D216016C0832D30
S11315408260382EE32DE4603E2E2AC0F32DF8602D
S11315501DC037FC2DC020ED280F2A3040F08E32FC
S1131560B9F436FC81C1232D2064322E19C036FE15
S113157006C08AE0989E200D1124922E11C0EAE044
S11315802E9E200D1124222EF32DF0623F2E08C032
S11315908C3621F4832D8068382E02C0883641F4BD
S11315A0F70193FD859193FF81917F018111B3CF61
S11315B0982F9F7D9554933028F40C5F1F4F9FE321
S11315C099830DC0833631F0833771F0833509F088
S11315D059C021C0F801808189830E5F1F4F882480
S11315E08394912C530113C02801F2E04F0E511C37
S11315F0F801A080B18036FE03C0692D70E002C0FE
S11316006FEF7FEFC5010E9480124C018201F32D20
S1131610FF773F2E16C0280122E0420E511CF8012C
S1131620A080B18036FE03C0692D70E002C06FEF68
S11316307FEFC5010E946E124C01F32DF0683F2E1E
S1131640820133FC1BC0822D90E088169906B0F409
S1131650B60180E290E00E94C9122A94F4CFF50109
S113166037FC859137FE81915F01B60190E00E94BD
S1131670C91221102A9421E0821A9108811491043C
S113168071F7E8C0843611F0893641F5F80137FE68
S113169007C060817181828193810C5F1F4F08C0F4
S11316A060817181072E000C880B990B0E5F1F4F10
S11316B0F32DFF763F2E97FF09C090958095709586
S11316C061957F4F8F4F9F4FF0683F2E2AE030E0A7
S11316D0A3010E941E13882E861845C0853731F455
S11316E0232D2F7EB22E2AE030E025C0932D997F42
S11316F0B92E8F36C1F018F4883579F0B5C080372B
S113170019F0883721F0B0C0E92FE061BE2EB4FE95
S11317100DC0FB2DF460BF2E09C034FE0AC0292F72
S11317202660B22E06C028E030E005C020E130E09B
S113173002C020E132E0F801B7FE07C06081718188
S1131740828193810C5F1F4F06C06081718180E0AC
S113175090E00E5F1F4FA3010E941E13882E86186F
S1131760FB2DFF773F2E36FE0DC0232D2E7FA22E9C
S1131770891458F434FE0BC032FC09C0832D8E7ECC
S1131780A82E05C0B82CA32C03C0B82C01C0B92CBA
S1131790A4FE0FC0FE01E80DF11D8081803321F409
S11317A09A2D997EA92E09C0A2FE06C0B394B394C3
S11317B004C08A2D867809F0B394A3FC11C0A0FE5E
S11317C006C0B21488F4280C922C9B180EC0B214D4
S11317D060F4B60180E290E00E94C912B394F7CF9E
S11317E0B21418F42B1802C0982C212CA4FE10C09B
S11317F0B60180E390E00E94C912A2FE17C0A1FCCA
S113180003C088E790E002C088E590E0B6010CC010
S11318108A2D867859F0A1FE02C08BE201C080E2D5
S1131820A7FC8DE2B60190E00E94C912891438F435
S1131830B60180E390E00E94C9129A94F7CF8A948B
S1131840F301E80DF11D8081B60190E00E94C912F8
S11318508110F5CF222009F442CEB60180E290E057
S11318600E94C9122A94F6CFF6018681978102C09C
S11318708FEF9FEF2B96E2E10C949B1320FD09C0A0
S1131880FC0123FD05C022FF02C0738362835183E0
S11318904083089544FD17C046FD17C0AB01BC0149
S11318A0DA01FB01AA0FBB1FEE1FFF1F1094D1F733
S11318B04A0F5B1F6E1F7F1FCB01BA01660F771F94
S11318C0881F991F09C033E001C034E0660F771FF9
S11318D0881F991F3150D1F7620F711D811D911D11
S11318E008950F931F93CF93DF938C01C8010E9437
S11318F08B12EC0197FD08C00E945A12892BB1F794
S1131900B801CE010E940513CE01DF91CF911F9142
S11319100F9108958F929F92AF92BF92EF92FF9290
S11319200F931F93CF93DF938C01D62F7A01B22E9E
S11319300E948B129C0133272B32310531F02D325A
S1131940310561F48B2D8068B82ED15011F480E0FC
S113195068C0C8010E948B1297FDF9CFCB2DCD7FB3
S11319602B2D207309F58033F9F4AA24AA94AD0E23
S113197009F443C0C8010E948B1297FD3EC09C012C
S11319802F7D33272835310549F4C264D250A9F19B
S1131990C8010E948B1297FF07C02FC0B6FE02C079
S11319A0C26001C0C261DA2D812C912C540120ED5A
S11319B0280F283080F0C4FF04C0B8010E9405132A
S11319C019C02A3040F0C6FFF8CF2F7D3FEE320F0A
S11319D0363098F727504C2FC501B4010E944A0CA9
S11319E04B015C01C260D15059F0C8010E948B12B6
S11319F097FFDDCFC1FD04C0AACF812C912C5401E7
S1131A00C7FF08C0B094A09490948094811C911C4A
S1131A10A11CB11C2C2FB501A401C7010E943E0CCE
S1131A2081E0DF91CF911F910F91FF90EF90BF90D4
S1131A30AF909F908F900895A0E2B0E0E2E2FDE0C5
S1131A400C9482135C01962E7A01F9018E010F5FCA
S1131A501F4F680180E2D8011D928A95E9F7D501EC
S1131A6013968C9080E090E0612C712C30E061E062
S1131A7070E083FC259183FE21918F01522E211168
S1131A8003C080E090E092C02E3511F4009751F12C
S1131A90432F50E0481759073CF42D3559F12D32A6
S1131AA019F4772009F103C0772009F46AC0452DA1
S1131AB0469546954695D601A40FB11D452D477010
S1131AC08B0102C0000F111F4A95E2F7A8015C9137
S1131AD0452B4C93651459F0561410F45394E7CFE6
S1131AE05A94E5CF31E004C07724739401C0712C7B
S1131AF00196BFCF772019F08E8180628E833111D9
S1131B0003C08824839417C0F6019E012F5D3F4FC4
S1131B108081809581932E173F07D1F7F2CFE1148E
S1131B20F10429F0D7018C93F70131967F019A943F
S1131B30812C9920F9F0C5010E948B1297FD18C0E1
S1131B40FC01FF2723E0F595E7952A95E1F7EC0DD5
S1131B50FD1D208130E0AC014770552702C035954A
S1131B6027954A95E2F720FDDACFB5010E940513C7
S1131B70811087CFE114F10411F0D7011C92C80140
S1131B8015C0422F469546954695D601A40FB11D22
S1131B90422F47708B0102C0000F111F4A95E2F7D4
S1131BA0A8015C91452B4C93622EA2CFA096EFE046
S1131BB00C949E13A0E0B0E0E0EEFDE00C948213E0
S1131BC06C01EB015A01FC0117821682512CF601BB
S1131BD0E380FE01E3FC8591E3FE8191182FEF0180
S1131BE0882309F4EEC090E00E945A12892B21F058
S1131BF0C6010E94710CEBCF153241F4FE01E3FCE7
S1131C001591E3FE1191EF01153281F4C6010E9492
S1131C108B1297FDD4C0412F50E09C013327241729
S1131C203507A9F2B6010E940513CBC01A3239F464
S1131C30E3FC1591E3FE1191EF0101E001C000E026
S1131C40F12C20ED210F2A3080F402606F2D70E01A
S1131C5080E090E040E20E944A0CF62EFE01E3FC94
S1131C601591E3FE1191EF01ECCF01FF03C0F110D8
S1131C7003C0A7C0FF24FA94183619F01C3651F09B
S1131C8010C0FE01E3FC1591E3FE1191EF0118363B
S1131C9041F408600460FE01E3FC1591E3FE119138
S1131CA0EF01112309F48DC0612F70E084E590E009
S1131CB00E946312892B09F484C000FD07C0F5015A
S1131CC080809180C50102965C0102C0812C912C18
S1131CD01E3651F4F6014681578160E070E0202FF2
S1131CE0C4010E943E0C73CF1336A9F401FD02C057
S1131CF0FF24F394C6010E948B1297FD60C08114E7
S1131D00910429F0F4018083C40101964C01FA94F2
S1131D10F110F0CF50C01B3559F49E01A4016F2D72
S1131D20C6010E941C0DEC01892B09F044C03EC081
S1131D30C6010E94710C97FD42C01F3661F128F460
S1131D40143639F1193651F128C0133771F01537AB
S1131D5001F123C08114910429F0F4016082C401CB
S1131D6001964C01FA94FF2071F0C6010E948B1277
S1131D703C0197FD08C00E945A12892B59F3B60101
S1131D80C3010E94051381149104A9F0F401108287
S1131D9012C0006203C0006101C00064202FA401CE
S1131DA06F2DC6010E948A0C811105C0F601838142
S1131DB0807329F406C000FD0ACF539408CF552040
S1131DC019F0852D90E002C08FEF9FEFCDB7DEB7FD
S1131DD0EFE00C949E130F931F93CF93DF93869F92
S1131DE08001879F100D969F100D1124C8010E9439
S1131DF06110EC01009729F0A80160E070E00E94F6
S1131E007912CE01DF91CF911F910F910895A9E02E
S1131E10B0E0EDE0FFE00C9485136A01122FB02EC0
S1131E202BE3201720F0FF24F394F00E02C02CE3E0
S1131E30F22E0F2D27E0AE014F5F5F4F0E948211FB
S1131E40BC014981842F8970813031F0E1FC06C0E6
S1131E50E0FE06C090E205C09DE203C09BE201C023
S1131E6090E05E2D507143FF3CC0911102C083E0AD
S1131E7001C084E0811718F4212F281B01C020E041
S1131E8051110BC0F601822F30E2882319F03193EF
S1131E908150FBCFC20ED11C20E0992329F0D6013A
S1131EA09C93F60131966F01C6010396E2FE0AC0C7
S1131EB03EE4D6013C9341E411964C93119712965B
S1131EC03C9306C03EE6F601308341E6418332830B
S1131ED0FC01322F40E2332309F442C041933150D4
S1131EE0FACF42FF44C0911102C083E001C084E0F4
S1131EF0811718F4212F281B01C020E051110BC0B9
S1131F00F601822F30E2882319F031938150FBCF00
S1131F10C20ED11C20E0992329F0D6019C93F6012E
S1131F2031966F01C6010396E2FE0BC039E4D60177
S1131F303C933EE411963C93119736E412963C93FD
S1131F4007C039E6F60130833EE6318336E6328354
S1131F50FC01322F40E2332319F041933150FBCF7F
S1131F60FC01E20FF11D10828EEF9FEFA6C021E06D
S1131F7030E0911102C020E030E0161617061CF480
S1131F80FB01319602C0E1E0F0E02E0F3F1FBB20C1
S1131F9021F0EB2DF0E0319602C0E0E0F0E02E0FEE
S1131FA03F1FE12FF0E02E173F071CF4121B212FD7
S1131FB001C020E08E2D887159F4F601822F30E2A1
S1131FC0882319F031938150FBCFC20ED11C20E03D
S1131FD0992329F0D6019C93F60131966F01511192
S1131FE00BC0F601822F90E3882319F0919381505E
S1131FF0FBCFC20ED11C20E00F2D060F9A81342F87
S1132000307144FF03C0913309F40150101624F4D5
S1132010093018F008E001C001E0AB0177FF02C00D
S113202040E050E0FB01E41BF50BA1E0B0E0AC0F95
S1132030BD1FEA0FFB1F8EE2A82E4B01801A9108E8
S11320400B2D10E01195019511094F3FBFEF5B0770
S113205021F4D601AC9211966D01641775072CF02A
S11320608416950614F4818101C080E3415051091E
S11320703196D60111967D014017510724F0D601FF
S11320808C936701E2CF6417750739F4963320F413
S1132090953319F4311101C081E3F6018083F7010E
S11320A0822F90E2882319F091938150FBCFF7019E
S11320B0E20FF11D108280E090E02996ECE00C9490
S11320C0A1130F931F93CF93DF938230910510F4E4
S11320D082E090E0E091E902F091EA0220E030E051
S11320E0A0E0B0E0309719F1408151810281138161
S11320F048175907C8F08417950769F4109731F009
S113210012960C93129713961C9327C00093E9021E
S11321101093EA0222C02115310519F04217530722
S113212018F49A01BD01EF01DF01F801DBCF21159D
S11321303105F9F0281B390B2430310580F48A81EC
S11321409B816115710521F0FB019383828304C097
S11321509093EA028093E902FE01329644C0FE01A4
S1132160E20FF31F8193919322503109398328831D
S11321703AC02091E7023091E802232B41F42091E8
S11321806200309163003093E8022093E7022091CB
S11321906000309161002115310541F42DB73EB73F
S11321A04091640050916500241B350BE091E702D7
S11321B0F091E802E217F307A0F42E1B3F0B281757
S11321C0390778F0AC014E5F5F4F2417350748F0AC
S11321D04E0F5F1F5093E8024093E702819391935F
S11321E002C0E0E0F0E0CF01DF91CF911F910F91A9
S11321F00895CF93DF93009709F481C0FC013297CF
S113220013821282A091E902B091EA02109781F43C
S113221020813181820F931F2091E7023091E802DF
S11322202817390751F5F093E802E093E70267C0F5
S1132230ED0120E030E0CE17DF0740F44A815B81F6
S11322409E0141155105F1F0EA01F5CFD383C28314
S113225040815181840F951FC817D90759F488818B
S11322609981840F951F0296918380838A819B8133
S1132270938382832115310529F4F093EA02E093D4
S1132280E9023DC0E901FB83EA8349915991C40FF6
S1132290D51FEC17FD0761F480819181840F951F90
S11322A00296E90199838883828193819B838A833F
S11322B0E0E0F0E012968D919C911397009719F04D
S11322C0FD01DC01F7CF8D919C9111979D012E5F4B
S11322D03F4F820F931F2091E7023091E8022817A5
S11322E0390769F4309729F41092EA021092E9024E
S11322F002C013821282B093E802A093E702DF9136
S1132300CF910895283008F027E03327DA01990F98
S1132310311D87FD916000966105710539F43260C5
S11323202E5F3D9330E32A95E1F708959F3F30F007
S113233080387105610509F03C5F3C5F3D93913045
S113234008F08068911DDF93CF931F930F93FF9242
S1132350EF92192F987F9695E92F96959695E90F08
S1132360FF27E654FF4F99273327EE24FF24A701C4
S1132370E70105900894079428F4360FE71EF81E29
S1132380491F511D660F771F881F991F0694A1F7D7
S11323900590079428F4E70EF81E491F561FC11D27
S11323A0770F881F991F661F0694A1F7059007945D
S11323B028F4F80E491F561FC71FD11D880F991FF7
S11323C0661F771F0694A1F70590079420F4490F20
S11323D0561FC71FD81F990F661F771F881F0694A3
S11323E0A9F784911095177041F0D695C795579524
S11323F04795F794E7941A95C1F7E0E6F0E06894FE
S11324001590159135916591959105907FE273959D
S1132410E118F10A430B560BC90BD009C0F7E10CC4
S1132420F11E431F561FC91FD01D7EF4703311F4D3
S11324308A95E6CFE894015030F0080F0AF400279B
S1132440021708F4202F2395022F7A3328F079E31A
S11324507D932A95E9F710C07D932A9589F6069411
S113246097956795379517951794E118F10A430BDB
S1132470560BC90BD00998F023957E9173957A3346
S113248008F070E37C932013B8F77E9170617D931C
S113249030F0839571E37D9370E32A95E1F711247D
S11324A0EF90FF900F911F91CF91DF91992787FDB6
S11324B09095089591110C947C13803219F08950F1
S11324C08550C8F70895FC010590061621F00020F8
S11324D0D9F7C00108953197CF010895FC01059003
S11324E0615070400110D8F7809590958E0F9F1F12
S11324F00895DC0101C06D9341505040E0F7089508
S1132500FC016150704001900110D8F780959095BE
S11325108E0F9F1F0895CF93DF93EC012B8120FF33
S113252033C026FF0AC02F7B2B838E819F810196A7
S11325309F838E838A8190E029C022FF0FC0E881A7
S1132540F9818081082E000C990B009719F4206200
S11325502B831AC03196F983E8830EC0EA85FB8584
S1132560099597FF09C02B81019611F080E201C003
S113257080E1822B8B8308C02E813F812F5F3F4FE8
S11325803F832E83992702C08FEF9FEFDF91CF9176
S113259008950F931F93CF93DF93FB01238121FDB4
S11325A003C08FEF9FEF2CC022FF16C046815781D6
S11325B0248135814217530744F4A081B1819D01E0
S11325C02F5F3F4F318320838C93268137812F5F88
S11325D03F4F3783268314C08B01EC01FB01008439
S11325E0F185E02D0995892BE1F6D80116968D9198
S11325F09C911797019617969C938E931697CE01EC
S1132600DF91CF911F910F910895FB01238120FF4A
S113261012C026FD10C08F3F3FEF930761F0828305
S11326202F7D20642383268137812150310937830C
S11326302683992708958FEF9FEF0895FA01AA271B
S1132640283051F1203181F1E8946F936E7F6E5FF1
S11326507F4F8F4F9F4FAF4FB1E03ED0B4E03CD09F
S1132660670F781F891F9A1FA11D680F791F8A1F82
S1132670911DA11D6A0F711D811D911DA11D20D0E9
S113268009F468943F912AE0269F11243019305DA3
S11326903193DEF6CF010895462F4770405D419394
S11326A0B3E00FD0C9F7F6CF462F4F70405D4A33E1
S11326B018F0495D31FD4052419302D0A9F7EACFA9
S11326C0B4E0A6959795879577956795BA95C9F7D8
S11326D000976105710508959B01AC010A2E0694CB
S11326E05795479537952795BA95C9F7620F731F84
S11326F0841F951FA01D08959927882708952F9258
S11327003F924F925F926F927F928F929F92AF927D
S1132710BF92CF92DF92EF92FF920F931F93CF93CA
S1132720DF93CDB7DEB7CA1BDB0B0FB6F894DEBF61
S11327300FBECDBF09942A88398848885F846E8487
S11327407D848C849B84AA84B984C884DF80EE80D1
S1132750FD800C811B81AA81B981CE0FD11D0FB6DA
S1132760F894DEBF0FBECDBFED010895F894FFCFFE
S11327700000EB0220003E009600960096009600B2
S1132780DC05DC05E803DC050100524F4C00504930
S1132790540059415700544852005354500067792B
S11327A0726F207261773A2025642C2025642C20D6
S11327B02564200D0A006779726F206F6666736561
S11327C0743A20256C642C20256C642C20256C64C0
S11327D0200D0A006779726F20616E676C653A207C
S11327E025732C202573200D0A0061636320616E1C
S11327F0676C653A2025732C202573200D0A006D23
S11328006561737572657320616E676C653A202526
S1132810732C2025732025730D0A00616E67756C77
S11328206172206D6F74696F6E733A2025732C206A
S113283025732025730D0A00706964207365742064
S1132840706F696E74733A2025732C2025732025CC
S1132850730D0A0070756C73655F6C656E677468E0
S11328605F6573633A20256C642C20256C642C20EE
S1132870256C642C20256C640D0A004F4352303AB9
S11328802025642C204F435231413A2025642C20CA
S11328904F435231423A2025642C204F4352323A5E
S11328A0202564200D0A004F435220736574207460
S11328B06F2025642E0D0A00736574757020646F93
S11328C06E650D0025323973005265736574746941
S11328D06E672121210D00522025642C502025648F
S11328E02C592025642C542025640D0A000D0A2D32
S11328F02D2D2D2D2D2D2D2D2D2D2D2D2D2D2D2D04
S11329002D2D2D2D2D2D2D2D2D0D00256420000078
S9030000FC
